{"abi":[{"type":"constructor","inputs":[],"stateMutability":"nonpayable"},{"type":"function","name":"ADMIN_ROLE","inputs":[],"outputs":[{"name":"","type":"bytes32","internalType":"bytes32"}],"stateMutability":"view"},{"type":"function","name":"DEFAULT_ADMIN_ROLE","inputs":[],"outputs":[{"name":"","type":"bytes32","internalType":"bytes32"}],"stateMutability":"view"},{"type":"function","name":"SCHEDULER_ROLE","inputs":[],"outputs":[{"name":"","type":"bytes32","internalType":"bytes32"}],"stateMutability":"view"},{"type":"function","name":"TIME_KEEPER","inputs":[],"outputs":[{"name":"","type":"bytes32","internalType":"bytes32"}],"stateMutability":"view"},{"type":"function","name":"currentEarthTimeAvg","inputs":[],"outputs":[{"name":"","type":"uint256","internalType":"uint256"}],"stateMutability":"view"},{"type":"function","name":"getBlockTime","inputs":[],"outputs":[{"name":"","type":"uint256","internalType":"uint256"},{"name":"","type":"uint256","internalType":"uint256"}],"stateMutability":"view"},{"type":"function","name":"getMaxBlockWidth","inputs":[],"outputs":[{"name":"","type":"uint256","internalType":"uint256"}],"stateMutability":"view"},{"type":"function","name":"getRoleAdmin","inputs":[{"name":"role","type":"bytes32","internalType":"bytes32"}],"outputs":[{"name":"","type":"bytes32","internalType":"bytes32"}],"stateMutability":"view"},{"type":"function","name":"grantRole","inputs":[{"name":"role","type":"bytes32","internalType":"bytes32"},{"name":"account","type":"address","internalType":"address"}],"outputs":[],"stateMutability":"nonpayable"},{"type":"function","name":"hasRole","inputs":[{"name":"role","type":"bytes32","internalType":"bytes32"},{"name":"account","type":"address","internalType":"address"}],"outputs":[{"name":"","type":"bool","internalType":"bool"}],"stateMutability":"view"},{"type":"function","name":"maxBlockWidth","inputs":[],"outputs":[{"name":"","type":"uint256","internalType":"uint256"}],"stateMutability":"view"},{"type":"function","name":"minNumberOfChronicles","inputs":[],"outputs":[{"name":"","type":"uint256","internalType":"uint256"}],"stateMutability":"view"},{"type":"function","name":"moveTime","inputs":[{"name":"chronicles","type":"tuple[]","internalType":"struct IBlockTime.Chronicle[]","components":[{"name":"epoch","type":"uint256","internalType":"uint256"},{"name":"timeKeeper","type":"address","internalType":"address"},{"name":"signature","type":"bytes","internalType":"bytes"}]},{"name":"meanCurrentEarthTime","type":"uint256","internalType":"uint256"},{"name":"receivers","type":"address[]","internalType":"address[]"},{"name":"amounts","type":"uint256[]","internalType":"uint256[]"}],"outputs":[],"stateMutability":"nonpayable"},{"type":"function","name":"renounceRole","inputs":[{"name":"role","type":"bytes32","internalType":"bytes32"},{"name":"callerConfirmation","type":"address","internalType":"address"}],"outputs":[],"stateMutability":"nonpayable"},{"type":"function","name":"revokeRole","inputs":[{"name":"role","type":"bytes32","internalType":"bytes32"},{"name":"account","type":"address","internalType":"address"}],"outputs":[],"stateMutability":"nonpayable"},{"type":"function","name":"setMaxBlockWidth","inputs":[{"name":"_maxBlockWidth","type":"uint256","internalType":"uint256"}],"outputs":[],"stateMutability":"nonpayable"},{"type":"function","name":"supportsInterface","inputs":[{"name":"interfaceId","type":"bytes4","internalType":"bytes4"}],"outputs":[{"name":"","type":"bool","internalType":"bool"}],"stateMutability":"view"},{"type":"function","name":"timeBlockWidth","inputs":[],"outputs":[{"name":"","type":"uint256","internalType":"uint256"}],"stateMutability":"view"},{"type":"function","name":"timeToken","inputs":[],"outputs":[{"name":"","type":"address","internalType":"contract TimeToken"}],"stateMutability":"view"},{"type":"event","name":"EarthTimeUpdated","inputs":[{"name":"newEarthTime","type":"uint256","indexed":false,"internalType":"uint256"},{"name":"chronicles","type":"tuple[]","indexed":false,"internalType":"struct IBlockTime.Chronicle[]","components":[{"name":"epoch","type":"uint256","internalType":"uint256"},{"name":"timeKeeper","type":"address","internalType":"address"},{"name":"signature","type":"bytes","internalType":"bytes"}]},{"name":"timeTokenReceivers","type":"address[]","indexed":false,"internalType":"address[]"},{"name":"amounts","type":"uint256[]","indexed":false,"internalType":"uint256[]"}],"anonymous":false},{"type":"event","name":"MaxBlockWidthSet","inputs":[{"name":"maxBlockWidth","type":"uint256","indexed":false,"internalType":"uint256"}],"anonymous":false},{"type":"event","name":"RoleAdminChanged","inputs":[{"name":"role","type":"bytes32","indexed":true,"internalType":"bytes32"},{"name":"previousAdminRole","type":"bytes32","indexed":true,"internalType":"bytes32"},{"name":"newAdminRole","type":"bytes32","indexed":true,"internalType":"bytes32"}],"anonymous":false},{"type":"event","name":"RoleGranted","inputs":[{"name":"role","type":"bytes32","indexed":true,"internalType":"bytes32"},{"name":"account","type":"address","indexed":true,"internalType":"address"},{"name":"sender","type":"address","indexed":true,"internalType":"address"}],"anonymous":false},{"type":"event","name":"RoleRevoked","inputs":[{"name":"role","type":"bytes32","indexed":true,"internalType":"bytes32"},{"name":"account","type":"address","indexed":true,"internalType":"address"},{"name":"sender","type":"address","indexed":true,"internalType":"address"}],"anonymous":false},{"type":"event","name":"Tick","inputs":[{"name":"currentEarthTimeBlockStart","type":"uint256","indexed":false,"internalType":"uint256"},{"name":"currentEarthTimeBlockEnd","type":"uint256","indexed":false,"internalType":"uint256"}],"anonymous":false},{"type":"error","name":"AccessControlBadConfirmation","inputs":[]},{"type":"error","name":"AccessControlUnauthorizedAccount","inputs":[{"name":"account","type":"address","internalType":"address"},{"name":"neededRole","type":"bytes32","internalType":"bytes32"}]},{"type":"error","name":"ReentrancyGuardReentrantCall","inputs":[]}],"bytecode":{"object":"0x608060405234801561000f575f80fd5b506001805560405161002090610144565b604051809103905ff080158015610039573d5f803e3d5ffd5b50600680546001600160a01b0319166001600160a01b039290921691909117905561006a5f6100653390565b61009b565b506100957fa49807205ce4d355092ef5a8a18f56e8913cf4a201fbe287825b095693c217753361009b565b50610151565b5f828152602081815260408083206001600160a01b038516845290915281205460ff1661013b575f838152602081815260408083206001600160a01b03861684529091529020805460ff191660011790556100f33390565b6001600160a01b0316826001600160a01b0316847f2f8788117e7eff1d82e926ec794901d17c78024a50270940304540a733656f0d60405160405180910390a450600161013e565b505f5b92915050565b610db480610b9d83390190565b610a3f8061015e5f395ff3fe608060405234801561000f575f80fd5b506004361061011c575f3560e01c80635c8ab63d116100a9578063a217fddf1161006e578063a217fddf14610267578063c47be9ce1461026e578063d3ba283114610295578063d547741f1461029e578063e27af3b9146102b1575f80fd5b80635c8ab63d146101e057806375b238fc1461020757806387ceff091461022e57806391d148541461024b5780639402d2241461025e575f80fd5b8063248a9ca3116100ef578063248a9ca31461017d57806328c8bcc41461019f5780632f2ff15d146101a757806336568abe146101ba57806339cd7acc146101cd575f80fd5b806301dd01781461012057806301ffc9a71461013c578063144a38f41461015f57806320d7fa0914610168575b5f80fd5b61012960035481565b6040519081526020015b60405180910390f35b61014f61014a3660046106a3565b6102dc565b6040519015158152602001610133565b61012960025481565b61017b6101763660046106d1565b610312565b005b61012961018b3660046106d1565b5f9081526020819052604090206001015490565b600354610129565b61017b6101b5366004610703565b610378565b61017b6101c8366004610703565b6103a2565b61017b6101db366004610775565b6103da565b6101297f2c0e86ef42968f843b5fc3a6f6d421401da96923e1a6a2299b016956535a3b8281565b6101297fa49807205ce4d355092ef5a8a18f56e8913cf4a201fbe287825b095693c2177581565b6102366104ca565b60408051928352602083019190915201610133565b61014f610259366004610703565b6104e7565b61012960045481565b6101295f81565b6101297f5deb80f1fea20acc457dd390fcbf54222f219039c03bc0e4fdd957afc513753f81565b61012960055481565b61017b6102ac366004610703565b61050f565b6006546102c4906001600160a01b031681565b6040516001600160a01b039091168152602001610133565b5f6001600160e01b03198216637965db0b60e01b148061030c57506301ffc9a760e01b6001600160e01b03198316145b92915050565b7fa49807205ce4d355092ef5a8a18f56e8913cf4a201fbe287825b095693c2177561033c81610533565b60038290556040518281527f026ed6b7c45ac355ab7d9cbea27bbda40e12a338230a98fb4b9f066831327ac99060200160405180910390a15050565b5f8281526020819052604090206001015461039281610533565b61039c8383610540565b50505050565b6001600160a01b03811633146103cb5760405163334bd91960e11b815260040160405180910390fd5b6103d582826105cf565b505050565b7f2c0e86ef42968f843b5fc3a6f6d421401da96923e1a6a2299b016956535a3b8261040481610533565b61040c610638565b6005869055600654604051636857310760e01b81526001600160a01b0390911690636857310790610447908890889088908890600401610893565b5f604051808303815f87803b15801561045e575f80fd5b505af1158015610470573d5f803e3d5ffd5b505050507f51f2ca755c094c83a2135845e58bfe7232cd29b9b324c3f118d42d11bece9a47868989888888886040516104af97969594939291906108c4565b60405180910390a16104c060018055565b5050505050505050565b5f806005546003546005546104df91906109ea565b915091509091565b5f918252602082815260408084206001600160a01b0393909316845291905290205460ff1690565b5f8281526020819052604090206001015461052981610533565b61039c83836105cf565b61053d8133610662565b50565b5f61054b83836104e7565b6105c8575f838152602081815260408083206001600160a01b03861684529091529020805460ff191660011790556105803390565b6001600160a01b0316826001600160a01b0316847f2f8788117e7eff1d82e926ec794901d17c78024a50270940304540a733656f0d60405160405180910390a450600161030c565b505f61030c565b5f6105da83836104e7565b156105c8575f838152602081815260408083206001600160a01b0386168085529252808320805460ff1916905551339286917ff6391f5c32d9c69d2a47ea670b442974b53935d1edc7fd64eb21e047a839171b9190a450600161030c565b60026001540361065b57604051633ee5aeb560e01b815260040160405180910390fd5b6002600155565b61066c82826104e7565b61069f5760405163e2517d3f60e01b81526001600160a01b03821660048201526024810183905260440160405180910390fd5b5050565b5f602082840312156106b3575f80fd5b81356001600160e01b0319811681146106ca575f80fd5b9392505050565b5f602082840312156106e1575f80fd5b5035919050565b80356001600160a01b03811681146106fe575f80fd5b919050565b5f8060408385031215610714575f80fd5b82359150610724602084016106e8565b90509250929050565b5f8083601f84011261073d575f80fd5b50813567ffffffffffffffff811115610754575f80fd5b6020830191508360208260051b850101111561076e575f80fd5b9250929050565b5f805f805f805f6080888a03121561078b575f80fd5b873567ffffffffffffffff8111156107a1575f80fd5b6107ad8a828b0161072d565b90985096505060208801359450604088013567ffffffffffffffff8111156107d3575f80fd5b6107df8a828b0161072d565b909550935050606088013567ffffffffffffffff8111156107fe575f80fd5b61080a8a828b0161072d565b989b979a50959850939692959293505050565b8183526020830192505f815f5b84811015610859576001600160a01b03610843836106e8565b168652602095860195919091019060010161082a565b5093949350505050565b8183525f6001600160fb1b0383111561087a575f80fd5b8260051b80836020870137939093016020019392505050565b604081525f6108a660408301868861081d565b82810360208401526108b9818587610863565b979650505050505050565b87815260806020820181905281018690525f60a0600588901b830181019083018983605e1936839003015b8b8210156109b057868503609f19018452823581811261090d575f80fd5b8d01803586526001600160a01b03610927602083016106e8565b1660208701526040810135601e19823603018112610943575f80fd5b0160208101903567ffffffffffffffff81111561095e575f80fd5b80360382131561096c575f80fd5b60606040880152806060880152808260808901375f608082890101526080601f19601f830116880101965050506020830192506020840193506001820191506108ef565b5050505082810360408401526109c781878961081d565b905082810360608401526109dc818587610863565b9a9950505050505050505050565b8082018082111561030c57634e487b7160e01b5f52601160045260245ffdfea2646970667358221220fecfea9257cd6bb54e2d2696a0712e4e903f99b346c0ded54bd9039a2b01661464736f6c634300081a0033608060405234801561000f575f80fd5b5033604051806040016040528060098152602001682a34b6b2aa37b5b2b760b91b8152506040518060400160405280600481526020016354494d4560e01b815250816003908161005f9190610194565b50600461006c8282610194565b5050506001600160a01b03811661009c57604051631e4fbdf760e01b81525f600482015260240160405180910390fd5b6100a5816100ab565b5061024e565b600580546001600160a01b038381166001600160a01b0319831681179093556040519116919082907f8be0079c531659141344cd1fd0a4f28419497f9722a3daafe3b4186f6b6457e0905f90a35050565b634e487b7160e01b5f52604160045260245ffd5b600181811c9082168061012457607f821691505b60208210810361014257634e487b7160e01b5f52602260045260245ffd5b50919050565b601f82111561018f57805f5260205f20601f840160051c8101602085101561016d5750805b601f840160051c820191505b8181101561018c575f8155600101610179565b50505b505050565b81516001600160401b038111156101ad576101ad6100fc565b6101c1816101bb8454610110565b84610148565b6020601f8211600181146101f3575f83156101dc5750848201515b5f19600385901b1c1916600184901b17845561018c565b5f84815260208120601f198516915b828110156102225787850151825560209485019460019092019101610202565b508482101561023f57868401515f19600387901b60f8161c191681555b50505050600190811b01905550565b610b598061025b5f395ff3fe608060405234801561000f575f80fd5b50600436106100cb575f3560e01c806370a082311161008857806395d89b411161006357806395d89b41146101a4578063a9059cbb146101ac578063dd62ed3e146101bf578063f2fde38b146101f7575f80fd5b806370a0823114610159578063715018a6146101815780638da5cb5b14610189575f80fd5b806306fdde03146100cf578063095ea7b3146100ed57806318160ddd1461011057806323b872dd14610122578063313ce567146101355780636857310714610144575b5f80fd5b6100d761020a565b6040516100e49190610797565b60405180910390f35b6101006100fb3660046107e7565b61029a565b60405190151581526020016100e4565b6002545b6040519081526020016100e4565b61010061013036600461080f565b6102b3565b604051601281526020016100e4565b61015761015236600461091b565b6102d6565b005b6101146101673660046109de565b6001600160a01b03165f9081526020819052604090205490565b61015761038d565b6005546040516001600160a01b0390911681526020016100e4565b6100d76103a0565b6101006101ba3660046107e7565b6103af565b6101146101cd3660046109fe565b6001600160a01b039182165f90815260016020908152604080832093909416825291909152205490565b6101576102053660046109de565b6103bc565b60606003805461021990610a2f565b80601f016020809104026020016040519081016040528092919081815260200182805461024590610a2f565b80156102905780601f1061026757610100808354040283529160200191610290565b820191905f5260205f20905b81548152906001019060200180831161027357829003601f168201915b5050505050905090565b5f336102a78185856103fe565b60019150505b92915050565b5f336102c0858285610410565b6102cb85858561048c565b506001949350505050565b6102de6104e9565b80518251146103005760405163512509d360e11b815260040160405180910390fd5b5f5b825181101561034f5761034783828151811061032057610320610a67565b602002602001015183838151811061033a5761033a610a67565b6020026020010151610516565b600101610302565b507f46c094f2f2404297a48a7c4d47697ed07cd7dcb542f35259c65ace5c1f68e1db8282604051610381929190610a7b565b60405180910390a15050565b6103956104e9565b61039e5f61054e565b565b60606004805461021990610a2f565b5f336102a781858561048c565b6103c46104e9565b6001600160a01b0381166103f257604051631e4fbdf760e01b81525f60048201526024015b60405180910390fd5b6103fb8161054e565b50565b61040b838383600161059f565b505050565b6001600160a01b038381165f908152600160209081526040808320938616835292905220545f19811015610486578181101561047857604051637dc7a0d960e11b81526001600160a01b038416600482015260248101829052604481018390526064016103e9565b61048684848484035f61059f565b50505050565b6001600160a01b0383166104b557604051634b637e8f60e11b81525f60048201526024016103e9565b6001600160a01b0382166104de5760405163ec442f0560e01b81525f60048201526024016103e9565b61040b838383610671565b6005546001600160a01b0316331461039e5760405163118cdaa760e01b81523360048201526024016103e9565b6001600160a01b03821661053f5760405163ec442f0560e01b81525f60048201526024016103e9565b61054a5f8383610671565b5050565b600580546001600160a01b038381166001600160a01b0319831681179093556040519116919082907f8be0079c531659141344cd1fd0a4f28419497f9722a3daafe3b4186f6b6457e0905f90a35050565b6001600160a01b0384166105c85760405163e602df0560e01b81525f60048201526024016103e9565b6001600160a01b0383166105f157604051634a1406b160e11b81525f60048201526024016103e9565b6001600160a01b038085165f908152600160209081526040808320938716835292905220829055801561048657826001600160a01b0316846001600160a01b03167f8c5be1e5ebec7d5bd14f71427d1e84f3dd0314c0f7b2291e5b200ac8c7c3b9258460405161066391815260200190565b60405180910390a350505050565b6001600160a01b03831661069b578060025f8282546106909190610b04565b9091555061070b9050565b6001600160a01b0383165f90815260208190526040902054818110156106ed5760405163391434e360e21b81526001600160a01b038516600482015260248101829052604481018390526064016103e9565b6001600160a01b0384165f9081526020819052604090209082900390555b6001600160a01b03821661072757600280548290039055610745565b6001600160a01b0382165f9081526020819052604090208054820190555b816001600160a01b0316836001600160a01b03167fddf252ad1be2c89b69c2b068fc378daa952ba7f163c4a11628f55a4df523b3ef8360405161078a91815260200190565b60405180910390a3505050565b602081525f82518060208401528060208501604085015e5f604082850101526040601f19601f83011684010191505092915050565b80356001600160a01b03811681146107e2575f80fd5b919050565b5f80604083850312156107f8575f80fd5b610801836107cc565b946020939093013593505050565b5f805f60608486031215610821575f80fd5b61082a846107cc565b9250610838602085016107cc565b929592945050506040919091013590565b634e487b7160e01b5f52604160045260245ffd5b604051601f8201601f1916810167ffffffffffffffff8111828210171561088657610886610849565b604052919050565b5f67ffffffffffffffff8211156108a7576108a7610849565b5060051b60200190565b5f82601f8301126108c0575f80fd5b81356108d36108ce8261088e565b61085d565b8082825260208201915060208360051b8601019250858311156108f4575f80fd5b602085015b838110156109115780358352602092830192016108f9565b5095945050505050565b5f806040838503121561092c575f80fd5b823567ffffffffffffffff811115610942575f80fd5b8301601f81018513610952575f80fd5b80356109606108ce8261088e565b8082825260208201915060208360051b850101925087831115610981575f80fd5b6020840193505b828410156109aa57610999846107cc565b825260209384019390910190610988565b9450505050602083013567ffffffffffffffff8111156109c8575f80fd5b6109d4858286016108b1565b9150509250929050565b5f602082840312156109ee575f80fd5b6109f7826107cc565b9392505050565b5f8060408385031215610a0f575f80fd5b610a18836107cc565b9150610a26602084016107cc565b90509250929050565b600181811c90821680610a4357607f821691505b602082108103610a6157634e487b7160e01b5f52602260045260245ffd5b50919050565b634e487b7160e01b5f52603260045260245ffd5b604080825283519082018190525f9060208501906060840190835b81811015610abd5783516001600160a01b0316835260209384019390920191600101610a96565b5050838103602080860191909152855180835291810192508501905f5b81811015610af8578251845260209384019390920191600101610ada565b50919695505050505050565b808201808211156102ad57634e487b7160e01b5f52601160045260245ffdfea2646970667358221220bebf4069ad7bc552ee2653f2b74bb4a2b3518427865051ab15e758d8caab839c64736f6c634300081a0033","linkReferences":{}},"methodIdentifiers":{"ADMIN_ROLE()":"75b238fc","DEFAULT_ADMIN_ROLE()":"a217fddf","SCHEDULER_ROLE()":"5c8ab63d","TIME_KEEPER()":"c47be9ce","currentEarthTimeAvg()":"d3ba2831","getBlockTime()":"87ceff09","getMaxBlockWidth()":"28c8bcc4","getRoleAdmin(bytes32)":"248a9ca3","grantRole(bytes32,address)":"2f2ff15d","hasRole(bytes32,address)":"91d14854","maxBlockWidth()":"01dd0178","minNumberOfChronicles()":"144a38f4","moveTime((uint256,address,bytes)[],uint256,address[],uint256[])":"39cd7acc","renounceRole(bytes32,address)":"36568abe","revokeRole(bytes32,address)":"d547741f","setMaxBlockWidth(uint256)":"20d7fa09","supportsInterface(bytes4)":"01ffc9a7","timeBlockWidth()":"9402d224","timeToken()":"e27af3b9"},"storageLayout":{"storage":[{"astId":46826,"contract":"src/utilities/BlockTime.sol:BlockTime","label":"_roles","offset":0,"slot":"0","type":"t_mapping(t_bytes32,t_struct(RoleData)46821_storage)"},{"astId":49185,"contract":"src/utilities/BlockTime.sol:BlockTime","label":"_status","offset":0,"slot":"1","type":"t_uint256"},{"astId":66900,"contract":"src/utilities/BlockTime.sol:BlockTime","label":"minNumberOfChronicles","offset":0,"slot":"2","type":"t_uint256"},{"astId":66903,"contract":"src/utilities/BlockTime.sol:BlockTime","label":"maxBlockWidth","offset":0,"slot":"3","type":"t_uint256"},{"astId":66906,"contract":"src/utilities/BlockTime.sol:BlockTime","label":"timeBlockWidth","offset":0,"slot":"4","type":"t_uint256"},{"astId":66909,"contract":"src/utilities/BlockTime.sol:BlockTime","label":"currentEarthTimeAvg","offset":0,"slot":"5","type":"t_uint256"},{"astId":66913,"contract":"src/utilities/BlockTime.sol:BlockTime","label":"timeToken","offset":0,"slot":"6","type":"t_contract(TimeToken)67482"}],"types":{"t_address":{"encoding":"inplace","label":"address","numberOfBytes":"20"},"t_bool":{"encoding":"inplace","label":"bool","numberOfBytes":"1"},"t_bytes32":{"encoding":"inplace","label":"bytes32","numberOfBytes":"32"},"t_contract(TimeToken)67482":{"encoding":"inplace","label":"contract TimeToken","numberOfBytes":"20"},"t_mapping(t_address,t_bool)":{"encoding":"mapping","key":"t_address","label":"mapping(address => bool)","numberOfBytes":"32","value":"t_bool"},"t_mapping(t_bytes32,t_struct(RoleData)46821_storage)":{"encoding":"mapping","key":"t_bytes32","label":"mapping(bytes32 => struct AccessControl.RoleData)","numberOfBytes":"32","value":"t_struct(RoleData)46821_storage"},"t_struct(RoleData)46821_storage":{"encoding":"inplace","label":"struct AccessControl.RoleData","numberOfBytes":"64","members":[{"astId":46818,"contract":"src/utilities/BlockTime.sol:BlockTime","label":"hasRole","offset":0,"slot":"0","type":"t_mapping(t_address,t_bool)"},{"astId":46820,"contract":"src/utilities/BlockTime.sol:BlockTime","label":"adminRole","offset":0,"slot":"1","type":"t_bytes32"}]},"t_uint256":{"encoding":"inplace","label":"uint256","numberOfBytes":"32"}}},"id":94}